{
  "contractName": "Election",
  "abi": [
    {
      "inputs": [
        {
          "internalType": "string",
          "name": "_ElectionName",
          "type": "string"
        },
        {
          "internalType": "string",
          "name": "_candidate",
          "type": "string"
        }
      ],
      "stateMutability": "nonpayable",
      "type": "constructor"
    },
    {
      "inputs": [],
      "name": "ElectionName",
      "outputs": [
        {
          "internalType": "string",
          "name": "",
          "type": "string"
        }
      ],
      "stateMutability": "view",
      "type": "function"
    },
    {
      "inputs": [
        {
          "internalType": "uint256",
          "name": "",
          "type": "uint256"
        }
      ],
      "name": "candidates",
      "outputs": [
        {
          "internalType": "uint256",
          "name": "id",
          "type": "uint256"
        },
        {
          "internalType": "string",
          "name": "name",
          "type": "string"
        },
        {
          "internalType": "uint256",
          "name": "voteCount",
          "type": "uint256"
        }
      ],
      "stateMutability": "view",
      "type": "function"
    },
    {
      "inputs": [],
      "name": "candidatesCount",
      "outputs": [
        {
          "internalType": "uint256",
          "name": "",
          "type": "uint256"
        }
      ],
      "stateMutability": "view",
      "type": "function"
    },
    {
      "inputs": [],
      "name": "name",
      "outputs": [
        {
          "internalType": "string",
          "name": "",
          "type": "string"
        }
      ],
      "stateMutability": "view",
      "type": "function"
    },
    {
      "inputs": [
        {
          "internalType": "address",
          "name": "",
          "type": "address"
        }
      ],
      "name": "voters",
      "outputs": [
        {
          "internalType": "bool",
          "name": "",
          "type": "bool"
        }
      ],
      "stateMutability": "view",
      "type": "function"
    },
    {
      "inputs": [
        {
          "internalType": "uint256",
          "name": "_candidate",
          "type": "uint256"
        }
      ],
      "name": "vote",
      "outputs": [],
      "stateMutability": "nonpayable",
      "type": "function"
    }
  ],
  "bytecode": "0x608060405260006004553480156200001657600080fd5b5060405162000ddb38038062000ddb83398181016040528101906200003c919062000341565b816001908051906020019062000054929190620000f4565b50600260405180606001604052806000815260200183815260200160008152509080600181540180825580915050600190039060005260206000209060030201600090919091909150600082015181600001556020820151816001019080519060200190620000c5929190620000f4565b5060408201518160020155505060046000815480929190620000e790620003ff565b91905055505050620004b2565b82805462000102906200047c565b90600052602060002090601f01602090048101928262000126576000855562000172565b82601f106200014157805160ff191683800117855562000172565b8280016001018555821562000172579182015b828111156200017157825182559160200191906001019062000154565b5b50905062000181919062000185565b5090565b5b80821115620001a057600081600090555060010162000186565b5090565b6000604051905090565b600080fd5b600080fd5b600080fd5b600080fd5b6000601f19601f8301169050919050565b7f4e487b7100000000000000000000000000000000000000000000000000000000600052604160045260246000fd5b6200020d82620001c2565b810181811067ffffffffffffffff821117156200022f576200022e620001d3565b5b80604052505050565b600062000244620001a4565b905062000252828262000202565b919050565b600067ffffffffffffffff821115620002755762000274620001d3565b5b6200028082620001c2565b9050602081019050919050565b60005b83811015620002ad57808201518184015260208101905062000290565b83811115620002bd576000848401525b50505050565b6000620002da620002d48462000257565b62000238565b905082815260208101848484011115620002f957620002f8620001bd565b5b620003068482856200028d565b509392505050565b600082601f830112620003265762000325620001b8565b5b815162000338848260208601620002c3565b91505092915050565b600080604083850312156200035b576200035a620001ae565b5b600083015167ffffffffffffffff8111156200037c576200037b620001b3565b5b6200038a858286016200030e565b925050602083015167ffffffffffffffff811115620003ae57620003ad620001b3565b5b620003bc858286016200030e565b9150509250929050565b7f4e487b7100000000000000000000000000000000000000000000000000000000600052601160045260246000fd5b6000819050919050565b60006200040c82620003f5565b91507fffffffffffffffffffffffffffffffffffffffffffffffffffffffffffffffff821415620004425762000441620003c6565b5b600182019050919050565b7f4e487b7100000000000000000000000000000000000000000000000000000000600052602260045260246000fd5b600060028204905060018216806200049557607f821691505b60208210811415620004ac57620004ab6200044d565b5b50919050565b61091980620004c26000396000f3fe608060405234801561001057600080fd5b50600436106100625760003560e01c80630121b93f1461006757806306fdde03146100835780632d35a8a2146100a15780633477ee2e146100bf57806380843e25146100f1578063a3ec138d1461010f575b600080fd5b610081600480360381019061007c91906104f2565b61013f565b005b61008b6102b3565b60405161009891906105b8565b60405180910390f35b6100a9610341565b6040516100b691906105e9565b60405180910390f35b6100d960048036038101906100d491906104f2565b610347565b6040516100e893929190610604565b60405180910390f35b6100f9610409565b60405161010691906105b8565b60405180910390f35b610129600480360381019061012491906106a0565b610497565b60405161013691906106e8565b60405180910390f35b600360003373ffffffffffffffffffffffffffffffffffffffff1673ffffffffffffffffffffffffffffffffffffffff16815260200190815260200160002060009054906101000a900460ff16156101cc576040517f08c379a00000000000000000000000000000000000000000000000000000000081526004016101c39061074f565b60405180910390fd5b600454811080156101de575060008110155b61021d576040517f08c379a0000000000000000000000000000000000000000000000000000000008152600401610214906107bb565b60405180910390fd5b6001600360003373ffffffffffffffffffffffffffffffffffffffff1673ffffffffffffffffffffffffffffffffffffffff16815260200190815260200160002060006101000a81548160ff02191690831515021790555060028181548110610289576102886107db565b5b906000526020600020906003020160020160008154809291906102ab90610839565b919050555050565b600080546102c0906108b1565b80601f01602080910402602001604051908101604052809291908181526020018280546102ec906108b1565b80156103395780601f1061030e57610100808354040283529160200191610339565b820191906000526020600020905b81548152906001019060200180831161031c57829003601f168201915b505050505081565b60045481565b6002818154811061035757600080fd5b9060005260206000209060030201600091509050806000015490806001018054610380906108b1565b80601f01602080910402602001604051908101604052809291908181526020018280546103ac906108b1565b80156103f95780601f106103ce576101008083540402835291602001916103f9565b820191906000526020600020905b8154815290600101906020018083116103dc57829003601f168201915b5050505050908060020154905083565b60018054610416906108b1565b80601f0160208091040260200160405190810160405280929190818152602001828054610442906108b1565b801561048f5780601f106104645761010080835404028352916020019161048f565b820191906000526020600020905b81548152906001019060200180831161047257829003601f168201915b505050505081565b60036020528060005260406000206000915054906101000a900460ff1681565b600080fd5b6000819050919050565b6104cf816104bc565b81146104da57600080fd5b50565b6000813590506104ec816104c6565b92915050565b600060208284031215610508576105076104b7565b5b6000610516848285016104dd565b91505092915050565b600081519050919050565b600082825260208201905092915050565b60005b8381101561055957808201518184015260208101905061053e565b83811115610568576000848401525b50505050565b6000601f19601f8301169050919050565b600061058a8261051f565b610594818561052a565b93506105a481856020860161053b565b6105ad8161056e565b840191505092915050565b600060208201905081810360008301526105d2818461057f565b905092915050565b6105e3816104bc565b82525050565b60006020820190506105fe60008301846105da565b92915050565b600060608201905061061960008301866105da565b818103602083015261062b818561057f565b905061063a60408301846105da565b949350505050565b600073ffffffffffffffffffffffffffffffffffffffff82169050919050565b600061066d82610642565b9050919050565b61067d81610662565b811461068857600080fd5b50565b60008135905061069a81610674565b92915050565b6000602082840312156106b6576106b56104b7565b5b60006106c48482850161068b565b91505092915050565b60008115159050919050565b6106e2816106cd565b82525050565b60006020820190506106fd60008301846106d9565b92915050565b7f566f7465722068617320616c726561647920566f746564210000000000000000600082015250565b600061073960188361052a565b915061074482610703565b602082019050919050565b600060208201905081810360008301526107688161072c565b9050919050565b7f496e76616c69642063616e64696461746520746f20566f746521000000000000600082015250565b60006107a5601a8361052a565b91506107b08261076f565b602082019050919050565b600060208201905081810360008301526107d481610798565b9050919050565b7f4e487b7100000000000000000000000000000000000000000000000000000000600052603260045260246000fd5b7f4e487b7100000000000000000000000000000000000000000000000000000000600052601160045260246000fd5b6000610844826104bc565b91507fffffffffffffffffffffffffffffffffffffffffffffffffffffffffffffffff8214156108775761087661080a565b5b600182019050919050565b7f4e487b7100000000000000000000000000000000000000000000000000000000600052602260045260246000fd5b600060028204905060018216806108c957607f821691505b602082108114156108dd576108dc610882565b5b5091905056fea2646970667358221220442dcb67c01fbc033db78fca818218ab662cb6a0c45edb0f61293ce215220b9a64736f6c634300080b0033",
  "immutableReferences": {},
  "source": "// SPDX-License-Identifier: MIT\r\npragma solidity >=0.4.21 <0.9.0;\r\npragma experimental ABIEncoderV2;\r\n\r\ncontract Election { //   :   ,   \r\n\r\n    string public name;\r\n    string public ElectionName;\r\n\r\n    //  \r\n    struct Candidate {\r\n        uint id;\r\n        string name;\r\n        uint voteCount;\r\n    }\r\n\r\n    //      Candidate\r\n    // mapping(uint => Candidate) public candidates;\r\n    Candidate[] public candidates;\r\n\r\n    //   boolean\r\n    mapping(address => bool) public voters;\r\n\r\n    //  \r\n    uint public candidatesCount = 0;\r\n    //   ->     (  )\r\n    // mapping(string => uint) scores;\r\n\r\n    //  :        \r\n    constructor(string memory _ElectionName, string memory _candidate) {\r\n        // require(_candidates.length > 0, \"There should be atleast 1 candidate.\");\r\n        ElectionName = _ElectionName;\r\n        // description = _nda[1];\r\n        candidates.push(Candidate(0, _candidate, 0)); //(id, name, voteCount)\r\n        candidatesCount++;\r\n    }\r\n\r\n    //    private function\r\n    function addCandidate (string memory _name) private {\r\n        require(candidates.length < 5);\r\n        uint id = candidates.length;\r\n        //  \r\n        candidates.push(Candidate(id, _name, 0));\r\n        //   \r\n        candidatesCount++;\r\n    }\r\n\r\n    //    vote function\r\n    function vote(uint _candidate) public {\r\n        // =>  ()  \r\n        require(!voters[msg.sender], \"Voter has already Voted!\");\r\n        require(_candidate < candidatesCount && _candidate >= 0, \"Invalid candidate to Vote!\");\r\n        //   \r\n        voters[msg.sender] = true;\r\n        //  \r\n        candidates[_candidate].voteCount++;\r\n        // total  \r\n        // numVote++;\r\n        // emit sendMsg(\" complete\");\r\n   \r\n    }\r\n\r\n}",
  "sourcePath": "C:\\Users\\LeeSeongHyun\\Desktop\\EVote\\contracts\\Election.sol",
  "compiler": {
    "name": "solc",
    "version": "0.8.11+commit.d7f03943.Emscripten.clang"
  },
  "schemaVersion": "3.4.5",
  "updatedAt": "2022-02-24T01:11:01.682Z",
  "devdoc": {
    "kind": "dev",
    "methods": {},
    "version": 1
  },
  "userdoc": {
    "kind": "user",
    "methods": {},
    "version": 1
  }
}